:0A0000000220D60229C753BCDF32EC
:06000B0002275FB2EE3295
:060013000229DAB2ED3211
:06001B0002000EB2EC32FF
:0600230002204AB2EB329C
:10002B00020006EF6401700443BC802253BC7F22A4
:03003B000218ADFB
:0300430002251B78
:03004B000226CEBC
:030053000229ED92
:03005B00022A0076
:10006300020016ECF5C3AF058FC4A2AF92D5C2AFA1
:0D00730075C65A75C6A50000A2D592AF2231
:10008300022A13AD07AC0675C78075F51875C5034D
:06009300120066022A467D
:03009B0002001E42
:0300A30002002632
:0300AB00022A2600
:0F00B3000228391229241227D3121EFC021D64C1
:1000C300021E417F061221E99002F5EEF0A3EFF044
:0C00D3009002C6E064147003121B71223E
:0300E30002286888
:0300EB0002289751
:0300F3000228C61A
:1000FB000228F50204BFE86480F8E933E8336011A5
:10010B000460F0ED33EC337009E8FCE9FDEAFEEB3B
:10011B00FF220460DED3EB9FEA9EE99DE8C2E78CE9
:10012B00F0C2F795F0400CE8CCF8E9CDF9EACEFA3D
:10013B00EBCFFB12048A85D0F05804700320D5B3A3
:10014B00E80470075002B2D50204C992D5EC0460E2
:10015B00F7E4CCC0E0C398F8603B94186008400DFE
:10016B00D0E0FB0204A1E4FBFAC9FC8028E830E4F0
:10017B0006E4C9FBE4CAFCE830E305E4C9CACBFCDE
:10018B00E854076010F8C3E913F9EA13FAEB13FB11
:10019B00EC13FCD8F130F52FC3E49CFCEF9BFFEE86
:1001AB009AFEED99FDD0E0FBEF4E4D4C701222DB29
:1001BB00030204C6EC2CFCEF33FFEE33FEED33FDF4
:1001CB00ED30E7EB0204A1EF2BFFEE3AFEED39FD2C
:1001DB00D0E0FB50130BBB00030204C9ED13FDEE83
:1001EB0013FEEF13FFEC13FC0204A1EC4D6011E8BE
:1001FB00497017ED33EC3304600DE4FCFFFEFD2278
:10020B00E933E8330470F80204BF12048A5804601F
:10021B0009E4CC248150062850090204C928400364
:10022B000204C6C0E0EB4A7044B98006D0E0FB0282
:10023B0004B5EF4E701CBD8008EBFFEAFEE9FD80B4
:10024B00EBE98DF0A4FEE5F00202DFE9CDF9EAFE61
:10025B00EBFFEF89F0A4FCE5F0CE89F0A42EFFE4D0
:10026B0035F0CD89F0A42DFEE435F08067EF4E70AC
:10027B0005BD80D780C3EF8BF0A4ACF0EE8BF0A460
:10028B002CFCE435F0F8EF8AF0A42CE5F038FCE414
:10029B0033CB8DF0A42CFCE5F03BF8EE8AF0A42CCC
:1002AB00FCE5F038F8E433CF89F0A42CFCE5F0380A
:1002BB00CF3400CE89F0A42FFFE5F03EFEE433C926
:1002CB008DF0A42EFEE5F039CD8AF0A42FFFE5F0DA
:1002DB003EFEE43DFD33D0E0FB50070BBB000F02AD
:1002EB0004C9EC2CFCEF33FFEE33FEED33FD0204BF
:1002FB00A10204C9EC5D046005E859047003020413
:10030B00BF12048A580460F6EC4860F2EC7004FDEE
:10031B00FEFF22C860DB2481C85009C398600250DD
:10032B00060204C69850CAF582E9294B4A7005AB00
:10033B00820204B575F0007C1A7880C3EF9BEE9AAD
:10034B00ED99400DC3EF9BFFEE9AFEED99FDE84250
:10035B00F0DC23ACF0D0E0FFD0E0FED0E0FDAB82D0
:10036B0020E7101BEB60BAEC2CFCEF33FFEE33FEF7
:10037B00ED33FD0204A1E803F830E705C0F075F09A
:10038B0000EF2FFFEE33FEED33FD40B830E7C280B8
:10039B00AA74F8CC6480CCC86480C8F58204604F22
:1003AB00C3EB9FF5F0EA9E42F0E99D42F0E89C45D5
:1003BB00F0603C501DE5825FFFE582D313CB5BCB36
:1003CB00F42B5582FB50280ABA002409B9002008E7
:1003DB00801DE5825BFBE582D313CF5FCFF4C313A4
:1003EB002F5582FF50090EBE00050DBD00010CC339
:1003FB00EB9FF5F0EA9E42F0E99D42F0E89C45F058
:10040B006007CC4820E701B3EC2275F020800E7515
:10041B00F010800575F0087D007E007F003392D5CB
:10042B0030D5031208DFEC334010EF33FFEE33FE11
:10043B00ED33FDEC33FCD5F0ED22E5F0247EA2D5B7
:10044B0013CC92E7CDCEFF22EDD2E7CD33EC339236
:10045B00D524814006E4FFFEFDFC22FCE4CFCECD8B
:10046B00CC24E0501174FF80EDC3CC13CCCD13CD55
:10047B00CE13CECF13CF0470F030D5DE0208DFE9F8
:10048B00D2E7C933E833F892D5EDD2E7CD33EC336D
:10049B00FC5002B2D522EC30E7100FBF000C0EBEA1
:1004AB0000080DBD00040BEB6014A2D5EB13FCEDA3
:1004BB0092E7FD2274FFFCFDFEFF22E480F8A2D53B
:1004CB0074FF13FC7D80E480EFF920E73624F950AC
:1004DB00037907E4F42402FBE5821582700215838D
:1004EB00DBF6E024FB501BE96014E4F0E582158297
:1004FB0070021583E004F0B40A08E4F0D9EE74013D
:10050B00F00A22C2D522ED33EC3392D5FA602AB42D
:10051B00FF33EDC2E77BFF60067A057936E4227A7A
:10052B0005793F20D5047A05793A224E614E002B8E
:10053B00494E46002D494E4600E47A08F0A3DAFCFA
:10054B007B00740722C083C082ECC0E0EDC0E0EEFC
:10055B00C0E0EFC0E0EA75F010A4CAABF075F04D47
:10056B00A42BFBE435F0FCEA2410FAEB34C5FBECCE
:10057B0034D9FCEDC2E7FF75F056A4F42411C5F095
:10058B00F434C58FF0A42AE5F03BE43CF020E714EB
:10059B00120646D0E0FFD0E0FED0E0FDD0E0FC122A
:1005AB0002FF8014F404120646D0E0FFD0E0FED028
:1005BB00E0FDD0E0FC1201F6D082D083E0FAEDD260
:1005CB00E7CD33EC332482FBE4C3CF33CFCE33CE32
:1005DB00CD33CD33DBF37B0775F00A846004F0A3D6
:1005EB001B0AE5F0F0A38FF0740AA4FFACF08EF0B9
:1005FB00740AA42CFEACF050010C8DF0740AA42CE0
:10060B00FDE435F0F0A3DBDE7407223F80000041F0
:10061B0020000042C80000447A0000461C400047FE
:10062B00C35000497424004B1896804CBEBC205A12
:10063B000E1BCA6753C21C749DC5AEFB60065407E4
:10064B00601C2323120674EB5438600912066012E7
:10065B00066F1201F6ECF8EDF9EEFAEFCB22EB1286
:10066B00066F80F1543803241C900616FE93FC0E83
:10067B00EE93FD0EEE930ECE93FF22BB0106898205
:10068B008A83E0225002E722BBFE02E32289828AA0
:10069B0083E49322BB010CE58229F582E5833AF5CD
:1006AB0083E0225006E92582F8E622BBFE06E92507
:1006BB0082F8E222E58229F582E5833AF583E49319
:1006CB0022BB010689828A83F0225002F722BBFEED
:1006DB0001F322BC000BBE0029EF8DF084FFADF0BF
:1006EB0022E4CCF875F008EF2FFFEE33FEEC33FC71
:1006FB00EE9DEC984005FCEE9DFE0FD5F0E9E4CEA7
:10070B00FD22EDF8F5F0EE8420D21CFEADF075F075
:10071B0008EF2FFFED33FD4007985006D5F0F2227E
:10072B00C398FD0FD5F0EA22C5F0F8A3E028F0C579
:10073B00F0F8E582158270021583E038F022A3F8F9
:10074B00E0C5F025F0F0E582158270021583E0C854
:10075B0038F0E822BB010A89828A83E0F5F0A3E036
:10076B0022500687F009E71922BBFE07E3F5F009D3
:10077B00E3192289828A83E493F5F074019322BBF7
:10078B000110E58229F582E5833AF583E0F5F0A3C4
:10079B00E0225009E92582F886F008E622BBFE0A22
:1007AB00E92582F8E2F5F008E222E5832AF583E9F0
:1007BB0093F5F0A3E99322E88FF0A4CC8BF0A42C53
:1007CB00FCE98EF0A42CFC8AF0EDA42CFCEA8EF054
:1007DB00A4CDA8F08BF0A42DCC3825F0FDE98FF03B
:1007EB00A42CCD35F0FCEB8EF0A4FEA9F0EB8FF032
:1007FB00A4CFC5F02ECD39FEE43CFCEAA42DCE35BA
:10080B00F0FDE43CFC2275F008758200EF2FFFEE43
:10081B0033FECD33CDCC33CCC58233C5829BED9A21
:10082B00EC99E58298400CF582EE9BFEED9AFDEC7F
:10083B0099FC0FD5F0D6E4CEFBE4CDFAE4CCF9A8C5
:10084B008222B800C1B90059BA002DEC8BF084CFCD
:10085B00CECDFCE5F0CBF97818EF2FFFEE33FEEDA4
:10086B0033FDEC33FCEB33FB10D703994004EB99CE
:10087B00FB0FD8E5E4F9FA227818EF2FFFEE33FEE1
:10088B00ED33FDEC33FCC933C910D7059BE99A4016
:10089B0007EC9BFCE99AF90FD8E0E4C9FAE4CCFB2E
:1008AB002275F010EF2FFFEE33FEED33FDCC33CC82
:1008BB00C833C810D7079BEC9AE899400AED9BFD0B
:1008CB00EC9AFCE899F80FD5F0DAE4CDFBE4CCFA1E
:1008DB00E4C8F922C3E49FFFE49EFEE49DFDE49C83
:1008EB00FC22EB9FF5F0EA9E42F0E99D42F0EC64AE
:1008FB0080C864809845F022EB9FF5F0EA9E42F0A9
:10090B00E99D42F0E89C45F022E8600FECC313FC34
:10091B00ED13FDEE13FEEF13FFD8F122BB010DE536
:10092B008229F582E5833AF583020A1A5007E925F5
:10093B0082F8020A0DBBFE07E92582F8020A26E5BA
:10094B008229F582E5833AF583020A33ECF0A3EDB5
:10095B00F0A3EEF0A3EFF022A8828583F0D083D032
:10096B008212097A12097A12097A12097AE473E46B
:10097B0093A3C583C5F0C583C8C582C8F0A3C5833F
:10098B00C5F0C583C8C582C822F8E0FBA3A3E0F974
:10099B0025F0F0E582158270021583E0FA38F0221B
:1009AB00EBF0A3EAF0A3E9F022D083D082F8E49332
:1009BB007012740193700DA3A393F8740193F582D5
:1009CB008883E4737402936860EFA3A3A380DF8A28
:1009DB00838982E473EC8EF0A4CCC5F0CCCDF8EF18
:1009EB00A4CEC5F02DFDE43CFCE8A42EC8C5F03D1B
:1009FB00FDE43CFCEFA4FFE5F028FEE43DFDE43C08
:100A0B00FC22E6FB08E6F908E6FA08E6CBF822E05A
:100A1B00F8A3E0F9A3E0FAA3E0FB22E2FB08E2F97A
:100A2B0008E2FA08E2CBF822E493F8740193F97424
:100A3B000293FA740393FB22EF6401707243BA8042
:100A4B0090FECCE054FEF0E054FBF090FEC8E05476
:100A5B00FCF0120686FE90FEC8E0548F4EF090001C
:100A6B000612069FFE90FECC30E00DE04401F090A4
:100A7B00FEB1E04401F0800BE054FEF090FEB1E0DB
:100A8B0054FEF0EE90FECC30E10DE04404F090FE0D
:100A9B00B1E04402F0800BE054FBF090FEB1E05467
:100AAB00FDF090000312078AFF90FED5020DBBEFFD
:100ABB006402707243BA8090FECCE054EFF0E054C5
:100ACB00BFF090FEC9E054FCF0120686FE90FEC902
:100ADB00E0548F4EF090000612069FFE90FECC3035
:100AEB00E20DE04410F090FEB1E04404F0800BE026
:100AFB0054EFF090FEB1E054FBF0EE90FECC30E3FF
:100B0B000DE04440F090FEB1E04408F0800BE0545F
:100B1B00BFF090FEB1E054F7F090000312078AFF8C
:100B2B0090FED7020DBBEF6403707243BA8090FE48
:100B3B00CDE054FEF0E054FBF090FECAE054FCF024
:100B4B00120686FE90FECAE0548F4EF090000612FD
:100B5B00069FFE90FECD30E40DE04401F090FEB117
:100B6B00E04410F0800BE054FEF090FEB1E054EF47
:100B7B00F0EE90FECD30E50DE04404F090FEB1E0D8
:100B8B004420F0800BE054FBF090FEB1E054DFF01A
:100B9B0090000312078AFF90FED9020DBBEF64048D
:100BAB00707243BA8090FECDE054EFF0E054BFF08A
:100BBB0090FECBE054FCF0120686FE90FECBE05488
:100BCB008F4EF090000612069FFE90FECD30E60D84
:100BDB00E04410F090FEB1E04440F0800BE054EFA5
:100BEB00F090FEB1E054BFF0EE90FECD30E70DE09B
:100BFB004440F090FEB1E04480F0800BE054BFF035
:100C0B0090FEB1E0547FF090000312078AFF90FE34
:100C1B00DB020DBBEF6480704F43BA80900005126E
:100C2B00069F90FEDEF090000112078AFD90FED227
:100C3B00E5F0F0A3EDF090000812069F640190FE22
:100C4B00DD7006E04480F08004E0547FF0900007F4
:100C5B0012069F640190FEC07007E04401F0020E83
:100C6B0013E054FEF0020E13EF6405704E43BA808E
:100C7B0090FEECE054FEF090FEE8E054FCF012061F
:100C8B0086FE90FEE8E0548F4EF090000612069F11
:100C9B0090FEEC30E00DE04401F090FEB5E0440135
:100CAB00F0800BE054FEF090FEB5E054FEF09000A7
:100CBB000312078AFF90FEF5020DBBEF6406704E20
:100CCB0043BA8090FEECE054EFF090FEE9E054FC68
:100CDB00F0120686FE90FEE9E0548F4EF09000066F
:100CEB0012069F90FEEC30E20DE04410F090FEB542
:100CFB00E04404F0800BE054EFF090FEB5E054FBC1
:100D0B00F090000312078AFF90FEF7020DBBEF6411
:100D1B0007704D43BA8090FEEDE054FEF090FEEA72
:100D2B00E054FCF0120686FE90FEEAE0548F4EF083
:100D3B0090000612069F90FEED30E40DE04401F0AA
:100D4B0090FEB5E04410F0800BE054FEF090FEB541
:100D5B00E054EFF090000312078AFF90FEF98050E9
:100D6B00EF6408705343BA8090FEEDE054EFF090BF
:100D7B00FEEBE054FCF0120686FE90FEEBE0548F87
:100D8B004EF090000612069F90FEED30E60DE0440B
:100D9B0010F090FEB5E04440F0800BE054EFF09083
:100DAB00FEB5E054BFF090000312078AFF90FEFBE4
:100DBB00E5F0F0A3EFF08050EF6481705143BA80FF
:100DCB0090000512069F90FEFEF090000112078A1C
:100DDB00FF90FEF2E5F0F0A3EFF090000812069FF3
:100DEB00640190FEFD7006E04480F08004E0547FC7
:100DFB00F090000712069F640190FEE07006E0443D
:100E0B0001F08004E054FEF053BA7F7F00227FFF95
:100E1B0022900268EBF0A3EAF0A3E9F0900267EFEF
:100E2B00F064016003020FF190000004F0E4A3F002
:100E3B00A3F0A3F0A3F0A3F0A3F090026BF0900249
:100E4B006BE0FFC39480748094805014749E2FF5D4
:100E5B0082E43400F583E4F090026BE004F080DE72
:100E6B00E490026BF090026BE0FFC394807480946B
:100E7B00805014740E2FF582E43400F583E4F09067
:100E8B00026BE004F080DE900268E0FBA3E0FAA3C3
:100E9B00E0F9120686FFE598543F4FF598EF64C0D2
:100EAB006008EF64406003020F969000021209275E
:100EBB007F807E8D7D5B7C0012084D90026C120949
:100ECB0057E4FFFE7D01FC90026CE0F8A3E0F9A370
:100EDB00E0FAA3E0FBC312090340037FFF22900259
:100EEB006CE0F8A3E0F9A3E0FAA3E0FBC3E49BFFFB
:100EFB00E49AFE740199FDE498FC90026C12095778
:100F0B00900268E0FBA3E0FAA3E0F990000112065F
:100F1B009FFB7A0064017038C28E538EFE5389BFDB
:100F2B005389CF438E4090026CE0FCA3E0FDA3E01D
:100F3B00FEA3E0FF78081209148F8D90026CA3A317
:100F4B00A3E0F58BC2AB5389BF538FFDD28E807A52
:100F5B00EB64024A7032538EEF438E01538EF7438C
:100F6B008E0490026CE0FCA3E0FDA3E0FEA3E0FF87
:100F7B0078081209148FD690026CA3A3A3E0F5D7BF
:100F8B0053AFFB438E1080427FFF22900268E0FB41
:100F9B00A3E0FAA3E0F9120686FF7E00701490001E
:100FAB000812069F64017005438E20801D538EDF4F
:100FBB008018EF64804E701290000812069F640137
:100FCB007005438780800353877F900268E0FBA303
:100FDB00E0FAA3E0F990000712069F7004C29C8010
:100FEB0002D29C7F0022900267E064026003021130
:100FFB002E9000077402F0E4A3F0A3F0A3F0A3F08B
:10100B00A3F0A3F090026BF090026BE0FFC394107F
:10101B00748094805014741E2FF582E43401F58390
:10102B00E4F090026BE004F080DEE490026BF09051
:10103B00026BE0FFC39410748094805014748E2F55
:10104B00F582E43400F583E4F090026BE004F08069
:10105B00DE900268E0FBA3E0FAA3E0F9120686FF3C
:10106B007E0064C06008EF6440600302110CEF6403
:10107B00C04E7005439A808003539A7F90000212F2
:10108B0009277F807E8D7D5B7C0012084D90026C62
:10109B00120957E4FFFE7D01FC90026CE0F8A3E01F
:1010AB00F9A3E0FAA3E0FBC312090340037FFF227D
:1010BB0090026CE0F8A3E0F9A3E0FAA3E0FBC3E431
:1010CB009BFFE49AFE740199FDE498FC90026C126C
:1010DB000957538EEF538EF7438E0490026CE0FC4E
:1010EB00A3E0FDA3E0FEA3E0FF78081209148FD65E
:1010FB0090026CA3A3A3E0F5D753AFFB438E1080F4
:10110B00037FFF22900268E0FBA3E0FAA3E0F990D3
:10111B00000712069FC454F0FFE59A54EF4FF59A5F
:10112B007F00227FFF22900004E0C3940774809419
:10113B008050030213E0A3E0D3940074809480509A
:10114B00030213E0E014F060030213E0900004E0EC
:10115B0094077480948050030213DB90000EE064BC
:10116B00A560030213DB900010E02410B40D0040C7
:10117B00030213D690118D75F003A4C58325F0C51A
:10118B0083730211B40211C80211DD0213D60213CC
:10119B00D60212220212590212EC0213130213424C
:1011AB0002136102137F02139EE49002C6F07F5A72
:1011BB00122A377FA5122A377FF00213D19002C66D
:1011CB007401F07F5A122A377FA5122A377FF1025A
:1011DB0013D1900011E0900260F0900012E0FF122A
:1011EB002951E4FCFD900247120957900260E0FF81
:1011FB007E0070089002C67402F0800CEF64014E02
:10120B0070069002C67403F07F5A122A377FA5121C
:10121B002A377FF20213D1900011E0FEA3E0FDED1F
:10122B00FF900261EEF0A3EFF0900013E0FD90024F
:10123B0063F0900014E0FC900264F0FB1223DF7F5C
:10124B005A122A377FA5122A377FF50213D1E4FFF2
:10125B00FE7DC87C42900218E0F8A3E0F9A3E0FA07
:10126B00A3E0FB1201F6120453900261EEF0A3EF20
:10127B00F0E4FFFE7D207C4190025AE0F8A3E0F9F8
:10128B00A3E0FAA3E0FB1201F6120453900263EF02
:10129B00F0E4FFFE7D207C41900256E0F8A3E0F9DC
:1012AB00A3E0FAA3E0FB1201F6120453900264EFE1
:1012BB00F07F5A122A377FA5122A377FF6122A3768
:1012CB00900261E0FF122A37900261A3E0FF122A1D
:1012DB0037900263E0FF122A37900264E0FF02139B
:1012EB00D1900011E0FEA3E0FDEDFF900254EEF073
:1012FB00A3EFF09002C67414F07F5A122A377FA521
:10130B00122A377FF70213D19002F5E0FFA3E0908A
:10131B000261CFF0A3EFF07F5A122A377FA5122A72
:10132B00377FF8122A37900261E0FF122A379002BA
:10133B0061A3E0FF0213D17F5A122A377FA5122A2D
:10134B00377FF9122A37900254E0FF122A379002A6
:10135B0054A3E0FF8070900011E0FEA3E0FDEDFFD1
:10136B001224BCEF606A7F5A122A377FA5122A37E4
:10137B007FFA80527F5A122A377FA5122A377FFBBA
:10138B00122A37900252E0FF122A37900252A3E042
:10139B00FF80339002687401F0A37402F0A3745FB2
:1013AB00F07B017A02795E121C6E7F5A122A377F0C
:1013BB00A5122A377FFC122A3790025EE0FF122A11
:1013CB003790025FE0FF122A378005E49002C6F0E7
:1013DB00E4900004F022900260EEF0A3EFF0A3EC97
:1013EB00F0A3EDF0E4900270F0A31209630000008B
:1013FB000090027512096300000000E4FFFEFDFC83
:10140B00900264E0F8A3E0F9A3E0FAA3E0FB120377
:10141B009C60164014900264E0FCA3E0FDA3E0FE88
:10142B00A3E0FF900218120957E4FFFEFDFC9002A7
:10143B0068E0F8A3E0F9A3E0FAA3E0FB12039C60D9
:10144B00164014900268E0FCA3E0FDA3E0FEA3E0CD
:10145B00FF90025A120957E4FFFEFDFC90026CE06C
:10146B00F8A3E0F9A3E0FAA3E0FB12039C6016409B
:10147B001490026CE0FCA3E0FDA3E0FEA3E0FF9060
:10148B000256120957900262E0FEA3E0FFC39002DE
:10149B0061E09FFD900260E09EFCE412041A900252
:1014AB001412095790021DE0FCA3E0FDA3E0FEA37C
:1014BB00E0FF900214E0F8A3E0F9A3E0FAA3E0FB4D
:1014CB0012010590021D120957E4FFFE7DFA7C43C1
:1014DB0090021DE0F8A3E0F9A3E0FAA3E0FB1203EE
:1014EB009C600C400A90021D12096343FA0000E451
:1014FB00FFFE7DFA7CC390021DE0F8A3E0F9A3E0A8
:10150B00FAA3E0FB12039C500A90021D120963C35D
:10151B00FA000090024EE0F8A3E0F9A3E0FAA3E092
:10152B00FB900214E0FCA3E0FDA3E0FEA3E0FF129E
:10153B00010190027512095790021DE0FCA3E0FD1A
:10154B00A3E0FEA3E0FF90025AE0F8A3E0F9A3E0CA
:10155B00FAA3E0FB1201F6C004C005C006C0079059
:10156B000214E0FCA3E0FDA3E0FEA3E0FFA3E0F880
:10157B00A3E0F9A3E0FAA3E0FB1201F6D003D0023B
:10158B00D001D000120105C004C005C006C00790F1
:10159B000275E0FCA3E0FDA3E0FEA3E0FF90025682
:1015AB00E0F8A3E0F9A3E0FAA3E0FB1201F6D00305
:1015BB00D002D001D000120105E4FBFA79C87842C1
:1015CB001202FF900271120957E4FFFE7DC87C42A4
:1015DB00900271E0F8A3E0F9A3E0FAA3E0FB120399
:1015EB009C600A40089002707464F08038E4FFFE3F
:1015FB007DC87CC2900271E0F8A3E0F9A3E0FAA3E6
:10160B00E0FB12039C5008900270749CF0801690C3
:10161B000271E0FCA3E0FDA3E0FEA3E0FF12045384
:10162B00900270EFF0900214E0FCA3E0FDA3E0FE4B
:10163B00A3E0FF90024E120957900270E0FF22AD1B
:10164B0007ED707EC28C120686FEC39403748094E1
:10165B008040037FFF22E58954FC4EF58990000101
:10166B0012069FFED394027480948040037FFF2266
:10167B00EEFF7E007006538E7F5389FBEF64014EA5
:10168B007006438E805389FBEF64024E70034389CF
:10169B000490000212069FFFE58F54FE4FF58F90CA
:1016AB00000312078AE5F0F58C90000312078AF508
:1016BB008A90000512069F7004C28C8002D28C7F28
:1016CB000022ED6401600302175AC28E120686FED9
:1016DB00C394037480948040037FFF22EEC454F0C4
:1016EB00FFE58954CF4FF58990000112069FFED379
:1016FB0094027480948040037FFF22EEFF7E007083
:10170B0006538EBF5389BFEF64014E7006438E4064
:10171B005389BFEF64024E7003438940900002125D
:10172B00069F25E0FFE58F54FD4FF58F90000312C8
:10173B00078AE5F0F58D90000312078AF58B900070
:10174B000512069F7004C28E8002D28E7F0022ED9E
:10175B0064027061538EEF90000112069FFF7E00B2
:10176B007006538EFB538EF7EF64014E7006438E5B
:10177B0004538EF7EF64024E7003438E0890000201
:10178B0012069F25E025E0FFE58F54FB4FF58F9068
:10179B00000312078AE5F0F5D690000312078AF5CD
:1017AB00D790000512069FC454F0FFE58E54EF4FFF
:1017BB00F58E7F0022ED6403706953D1F790000121
:1017CB0012069FFED394027480948040037FFF2205
:1017DB00EEFF7E00700653D1FD53D1FBEF64014E3B
:1017EB00700643D10253D1FBEF64024E700343D119
:1017FB000490000212069FFFE5D154FE4FF5D190E5
:10180B00000312078AE5F0F5D490000312078AF55E
:10181B00D590000512069F33333354F8FFE5D154AE
:10182B00F78076ED6404707753D17F900001120638
:10183B009FFD7C00D394027480948040037FFF2231
:10184B00ED4C700653D1DF53D1BF90000112069FB0
:10185B006401700643D12053D1BF90000112069F43
:10186B006402700343D14090000212069FC454F0EF
:10187B00FFE5D154EF4FF5D190000312078AFDAC71
:10188B00F0ECF5D2AF058FD390000512069FC43351
:10189B0033335480FFE5D1547F4FF5D17F00227F46
:1018AB00FF22C0E0C083C082C0D075D000C004C08E
:1018BB0005C006C00730D87BC2D8AFDAC3EF944857
:1018CB0074809480401F9002B9E0FEA3E0FF900269
:1018DB00C0E02FF09002BFE03EF0E0FEA3E0F5EA9F
:1018EB00EEF5FA804EE5DA541160489002D9E0FF2C
:1018FB00A3E09002D3CFF0A3EFF0AFFA9002D9E4BC
:10190B00F0A3EFF0E0FEADEA7C00E42DFFEC3E909F
:10191B0002D9F0A3EFF09002D3E0FEA3E0FFC39057
:10192B0002DAE09FFF9002D9E09E9002BFF0A3EF96
:10193B00F0D20730D97BC2D9AFDBC3EF94487480A8
:10194B009480401F9002BBE0FEA3E0FF9002C2E038
:10195B002FF09002C1E03EF0E0FEA3E0F5EBEEF5D8
:10196B00FB804EE5DB541160489002DBE0FFA3E007
:10197B009002D5CFF0A3EFF0AFFB9002DBE4F0A326
:10198B00EFF0E0FEADEB7C00E42DFFEC3E9002DBD4
:10199B00F0A3EFF09002D5E0FEA3E0FFC39002DCD2
:1019AB00E09FFF9002DBE09E9002C1F0A3EFF0D22C
:1019BB000830DA7BC2DAAFDCC3EF944874809480D2
:1019CB00401F9002BDE0FEA3E0FF9002C4E02FF0A9
:1019DB009002C3E03EF0E0FEA3E0F5ECEEF5FC80F8
:1019EB004EE5DC541160489002DDE0FFA3E090026D
:1019FB00D7CFF0A3EFF0AFFC9002DDE4F0A3EFF054
:101A0B00E0FEADEC7C00E42DFFEC3E9002DDF0A39C
:101A1B00EFF09002D7E0FEA3E0FFC39002DEE09F61
:101A2B00FF9002DDE09E9002C3F0A3EFF0D20930ED
:101A3B00DF02C2DFD007D006D005D004D0D0D082D1
:101A4B00D083D0E03243BA80EF24807003021AF4C3
:101A5B00147003021B2D2480B408004003021B6D7D
:101A6B00901A7975F003A4C58325F0C58373021A08
:101A7B0091021A9B021AA8021AB5021AC2021ACFB5
:101A8B00021ADC021AE812075FFF90FED5021B67F1
:101A9B0090000212078AFF90FED7021B679000048A
:101AAB0012078AFF90FED9021B6790000612078A65
:101ABB00FF90FEDB021B6790000812078AFF90FE67
:101ACB00F5021B6790000A12078AFF90FEF7021BB4
:101ADB006790000C12078AFF90FEF9807F90000E32
:101AEB0012078AFF90FEFB807312075FFF90FED5F3
:101AFB00E5F0F0A3EFF090000212078AFF90FED7FB
:101B0B00E5F0F0A3EFF090000412078AFF90FED9E6
:101B1B00E5F0F0A3EFF090000612078AFF90FEDBD2
:101B2B00803A90000812078AFF90FEF5E5F0F0A3CB
:101B3B00EFF090000A12078AFF90FEF7E5F0F0A392
:101B4B00EFF090000C12078AFF90FEF9E5F0F0A37E
:101B5B00EFF090000E12078AFF90FEFBE5F0F0A36A
:101B6B00EFF053BA7F22900218E0FCA3E0FDA3E054
:101B7B00FEA3E0FF90026412095790025AE0FCA307
:101B8B00E0FDA3E0FEA3E0FF90026812095790026C
:101B9B0056E0FCA3E0FDA3E0FEA3E0FF90026C1275
:101BAB0009579002F5E0FCA3E0FD900254E0FEA380
:101BBB00E0FF1213E190025EEFF03395E0FED3EFFE
:101BCB009400EE64809480400EE0A3F0D394647490
:101BDB0080948040248018C3EE64809480501590CC
:101BEB00025EE0F404A3F0946474809480400A7461
:101BFB0064F08005E490025FF090025FE0FF122931
:101C0B005190025EE0FD3395E0FCD3ED9400EC6463
:101C1B008094804015900241EEF0A3EFF0E4900227
:101C2B003FF0A3F0D2B2C2CD802EC3EC648094807F
:101C3B005015E4900241F0A3F090023FEEF0A3EFB9
:101C4B00F0C2B2D2CD8011E4900241F0A3F0900229
:101C5B003FF0A3F0C2B2C2CD7B017A0279357F810E
:101C6B00021A50900265EBF0A3EAF0A3E9F09002A0
:101C7B0041E0FEA3E0FF90026BEEF0A3EFF09002C9
:101C8B003FE0FDA3E090026DCDF0A3EDF0D3EF9418
:101C9B0000EE9400401E90026DE07002A3E0701401
:101CAB00900265E0FBA3E0FAA3E0F9E41206CC9006
:101CBB00026B802CD390026EE0940090026DE09446
:101CCB0000404290026BE07002A3E0703890026516
:101CDB00E0FBA3E0FAA3E0F974011206CC90026DCD
:101CEB00E0FEA3E0FF7C007D641209E0900221E09E
:101CFB00F8A3E0F9A3E0FAA3E0FB12084D90026F02
:101D0B001209578019900265E0FBA3E0FAA3E0F9F2
:101D1B00E41206CC90026F12096300000000E47F0E
:101D2B0064FEFDFC90026FE0F8A3E0F9A3E0FAA3D8
:101D3B00E0FBD3120903400A90026F120963000003
:101D4B00006490026FA3A3A3E0FF900268E0FBA3E3
:101D5B00E0FAA3E0F9EF0206CC7B017A02795E9000
:101D6B00026BE4F0A37404F0E4FFFE122807900268
:101D7B005EE0F47003A3E0F4706D900260E0F47029
:101D8B0066A3E0F47061A37405F0A374DCF0A37494
:101D9B000FF0A37464F0900262E0FCA3E0FDE41288
:101DAB00041AE4FBFA79C878421202FF9002181267
:101DBB000957900264E0FCE412041FE4FBFA79205B
:101DCB0078411202FF90025A120957900265E0FC0B
:101DDB00E412041FE4FBFA792078411202FF90020F
:101DEB005612095702226D90025EE0FCA3E0FDE45F
:101DFB0012041AE4FBFA79C878421202FF90021817
:101E0B00120957900260E0FCE412041FE4FBFA791C
:101E1B002078411202FF90025A120957900261E09A
:101E2B00FCE412041FE4FBFA792078411202FF90C4
:101E3B00025612095722C0E0C083C082C0D075D0B1
:101E4B0000C005C006C007AFBA43BA8090FE84E05D
:101E5B0030E607E054BFF0021EEB90FE84E030E565
:101E6B003BE054DFF09002FCE06004E4F080719002
:101E7B0002FBE0600DE4F090FE87E09002FDF0E0E5
:101E8B00803790FE87E0FE9002FDE0FD04F074DFEA
:101E9B002DF582E43402F583EEF0804490FE84E06D
:101EAB0030E426E054EFF0E030E10890FE8674FF5A
:101EBB00F0802D9002FDE004F024DFF582E4340283
:101ECB00F583E090FE86F0801790FE84E030E310FF
:101EDB00E054F7F09002FC7401F09002FBF0D21189
:101EEB008FBAD007D006D005D0D0D082D083D0E027
:101EFB0032E490023DF0A3F0A3F0A3F0A3F0A3F023
:101F0B00A37404F0A3E4F090025E7460F090023FBF
:101F1B00E0FFA3E0900261CFF0A3EFF090026474B6
:101F2B0004F07B017A02795E7F06120A4390025E0F
:101F3B007460F0900241E0FFA3E0900261CFF0A348
:101F4B00EFF09002647410F07B017A02795E7F07E8
:101F5B00120A43900221A3A3E0FFA3E090025FCFFC
:101F6B00F0A3EFF0E4900263F090026604F09002AD
:101F7B0065F0FB7A02795E7F81120A43E4FBFD7FF9
:101F8B0081121FAC5391F95392F953B17353B2733E
:101F9B00C2B353C9CF53CACFC2CC43B15053B2AF64
:101FAB0022EFD394817480948040037FFF22EBD384
:101FBB0094037480948040037FFF2243BA80EF2404
:101FCB007F603A04706E90FEC4EDF0EBFF7E007004
:101FDB000653B6FB53B5FBEF64014E700653B6FBCD
:101FEB0043B504EF64024E700643B60453B5FBEFE2
:101FFB0064034E704443B60443B504803C90FEE446
:10200B00EDF0EBFF7E00700653B6F753B5F7EF64B8
:10201B00014E700653B6F743B508EF64024E7006D7
:10202B0043B60853B5F7EF64034E700D43B6084340
:10203B00B508800590FEE4EDF053BA7F7F0022C017
:10204B00E0C083C082C0D075D000C006C0073098F6
:10205B0031C298900006E07029900004E0C3948090
:10206B00748094804002E4F0900004E0FF04F0746C
:10207B000E2FF582E43400F583E599F0900005749A
:10208B0005F0309939C299900003E4F0900002E01A
:10209B00FF900001E0FE6F6020749E2EF582E43409
:1020AB0000F583E0F599900001E004F0C39480748F
:1020BB008094804009E4F08005900003E4F0D007A1
:1020CB00D006D0D0D082D083D0E032787FE4F6D85F
:1020DB00FD75812202211D022A5FE493A3F8E4938C
:1020EB00A34003F68001F208DFF48029E493A3F800
:1020FB005407240CC8C333C4540F4420C883400472
:10210B00F456800146F6DFE4800B01020408102030
:10211B004080902367E47E019360BCA3FF543F3063
:10212B00E509541FFEE493A360010ECF54C025E0D4
:10213B0060A840B8E493A3FAE493A3F8E493A3C88C
:10214B00C582C8CAC583CAF0A3C8C582C8CAC5831D
:10215B00CADFE9DEE780BEE4FF900279E0FEEFC361
:10216B009E507AEF75F008A4247BF582E43402F5D7
:10217B0083E0FCA3E04C6061EF75F008A4247BF5D1
:10218B0082E43402F58374FFF5F0120733EF75F038
:10219B0008A4247BF582E43402F583E0FCA3E04C35
:1021AB007037EF75F008A4247DF582E43402F583D3
:1021BB00E0FCA3E0FDEF75F008A4247BF582E4348A
:1021CB0002F583ECF0A3EDF0EF75F008A4247AF59B
:1021DB0082E43402F5837401F00F02216422EFD301
:1021EB00940F7480948040028073E4F5BDF5BEE5D6
:1021FB00BC54F044404FF5BC000000000000000050
:10220B000000E4FDEDC394FA74809480504FE5BC5C
:10221B0030E54753BCDFE5DEAFBD30E50DEFFEAC7F
:10222B00BEECFBEBFF90025E802290025EE4F0A31B
:10223B00EFF0E5BEC4540FFBE0C4F8540FC868FFC1
:10224B0090025EE0C454F048FEEF4BFFEEF0A3EFBC
:10225B00F090025EE0FEA3E0FF220D80A77E107FD0
:10226B000022E4FFFE7DC87C42900218E0F8A3E058
:10227B00F9A3E0FAA3E0FB1201F6120453900267F4
:10228B00EEF0A3EFF0E4FFFE7D207C4190025AE0DC
:10229B00F8A3E0F9A3E0FAA3E0FB1201F612045352
:1022AB00900269EFF0E4FFFE7D207C41900256E046
:1022BB00F8A3E0F9A3E0FAA3E0FB1201F612045332
:1022CB0090026AEFF0E4FFFE1200867B017A02793E
:1022DB0067900270E4F0A37404F0E4FFFE02279A07
:1022EB009002C6E014601D14602D14604824037026
:1022FB0060E4900241F0A3F090023FF0A3F0D2B261
:10230B00D2CD804DE4900241F0A3F090023FF0A3B8
:10231B00F0C2B2C2CD803A900247A3A3E0FFA3E084
:10232B00900241CFF0A3EFF0E490023FF0A3F0D284
:10233B00B2C2CD801CE4900241F0A3F0900247A3FF
:10234B00A3E0FFA3E090023FCFF0A3EFF0C2B2D225
:10235B00CD7B017A0279357F81021A5058027A00BF
:10236B0000010001FF00C60000010001FF11310058
:10237B0000010001FF22EB410279034102C600423A
:10238B0002FE0000420245000042025207D0440206
:10239B002100002EE04102130041021C00440247C1
:1023AB00000000004402184220000044025A408002
:1023BB0000004402564000000044021D00000000D3
:1023CB004402140000000044024E000000004202D0
:1023DB0054000500900265EDF0A3EBF0AD07AC06E1
:1023EB00E412041AE4FBFA79C878421202FF900255
:1023FB0018120957900265E0FCE412041FE4FBFA83
:10240B00792078411202FF90025A12095790026606
:10241B00E0FCE412041FE4FBFA792078411202FF7E
:10242B0090025612095790021D120963000000001A
:10243B009002141209630000000090024E1209630F
:10244B000000000002226D90000112069FFFE5DEE6
:10245B0054F04FF5DE90000212069FC43354E0FF98
:10246B00E5DE54DF4FF5DE120686D3941F7480949D
:10247B0080503D90000312069FFFD394017480940B
:10248B0080502D90000412069FFED3940374809409
:10249B0080501D43BA80EEC43354E0FEEFC4333397
:1024AB003354804EFF1206864F90FEA8F053BA7F2E
:1024BB0022C3EF94E8EE94034009D3EF9440EE94DB
:1024CB001F40037F0022900252EEF0A3EFF0FBAA15
:1024DB0006E4F9F8FF7E367D6E7C0112271B900215
:1024EB0021120957900221A3A3E0FFA3E0900266FB
:1024FB00CFF0A3EFF0E490026AF090026D04F0903D
:10250B00026CF0FB7A0279657F81120A437F01220C
:10251B00C0E0C083C082C0D075D000C007E59A3040
:10252B00E032539AFE90000DE0702990000BE0C34F
:10253B009410748094804002E4F090000BE0FF0450
:10254B00F0748E2FF582E43400F583E59BF0900058
:10255B000C7405F0E59A30E108539AFD90000AE4FB
:10256B00F0D007D0D0D082D083D0E032E490025E9E
:10257B00F0900279E0FF90025EE0FEC39F5044EEC4
:10258B0075F008A4247AF582E43402F583E0602B1D
:10259B0090025EE0FF75F008A4247AF582E4340221
:1025AB00F583E4F0EF75F008A4247FF582E43402A0
:1025BB00F583A3E0FAA3E0F91209DA90025EE004D6
:1025CB00F080AE22EFFB7A00D394017480948040AC
:1025DB00037FFF22EDD394037480948040037FFF2D
:1025EB0022EB4A7004C2A98002D2A9ED700553B741
:1025FB00FDC2B9EDFF7E006401700553B7FDD2B982
:10260B00EF64024E700543B702C2B9EF64034E701C
:10261B000543B702D2B97F0022EFFB7A00D39401B6
:10262B007480948040037FFF22EDD39403748094D5
:10263B008040037FFF22EB4A7004C2AD8002D2AD13
:10264B00ED700553B7DFC2BDEDFF7E006401700571
:10265B0053B7DFD2BDEF64024E700543B720C2BD46
:10266B00EF64034E700543B720D2BD7F0022EFFB12
:10267B007A00D394017480948040037FFF22EDD3C2
:10268B0094037480948040037FFF22EB4A7004C252
:10269B00AC8002D2ACED700553B7EFC2BCEDFF7E40
:1026AB00006401700553B7EFD2BCEF64024E7005A6
:1026BB0043B710C2BCEF64034E700543B710D2BCD6
:1026CB007F0022C0E0C083C082C0D075D000C0079D
:1026DB00E5CE30E404C2108029900303E0C394805C
:1026EB00748094804002E4F0900303E0FF04F074E4
:1026FB002F2FF582E43401F583E5CFF090012E7492
:10270B0005F075CDC0D007D0D0D082D083D0E032C9
:10271B00C2D5E830E70FB2D5E4C39BFBE49AFAE4E9
:10272B0099F9E498F8EC30E717B2D5122751120853
:10273B004DE4C39BFBE49AFAE499F9E498F880031F
:10274B0012084D30D50DE4C39FFFE49EFEE49DFDC2
:10275B00E49CFC22C0E0C0F0C083C082C0D075D026
:10276B0000C000C001C002C003C004C005C006C049
:10277B0007122162D007D006D005D004D003D002B7
:10278B00D001D000D0D0D082D083D0F0D0E032AD09
:10279B0007AC0675C78075F51875C502ECF5C3AFA8
:1027AB00058FC4120686F5C212006D0DBD00010C1B
:1027BB00740129F9E43AFA90027074FFF5F01207EC
:1027CB003345F070D7022A4690025E7440F0A37432
:1027DB0001F0A31209630001C2009002657401F0BD
:1027EB00E4A3F07B017A02795E7F01120E1C7D015E
:1027FB007F0112267953B1FC53B2FC22AD07AC0614
:10280B0075C78075F51875C501120066E5C212060D
:10281B00CC0DBD00010C740129F9E43AFA90026B5E
:10282B0074FFF5F012073345F070DE022A46C0E064
:10283B00C083C082C0D075D000C007AFBA43BA8086
:10284B00E5F630E30353F6F790FF05E06002E4F0A2
:10285B008FBAD007D0D0D082D083D0E032C0E0C0C6
:10286B0083C082C0D075D000C007AFBA43BA80E531
:10287B00F630E70353F67F90FF55E06002E4F08FEC
:10288B00BAD007D0D0D082D083D0E032C0E0C083A2
:10289B00C082C0D075D000C007AFBA43BA80E5F78D
:1028AB0030E30353F7F790FFA5E06002E4F08FBA33
:1028BB00D007D0D0D082D083D0E032C0E0C083C06C
:1028CB0082C0D075D000C007AFBA43BA80E5F730ED
:1028DB00E70353F77F90FC05E06002E4F08FBAD07A
:1028EB0007D0D0D082D083D0E032C0E0C083C0828A
:1028FB00C0D075D000C007AFBA43BA80E5FE30E355
:10290B000353FEF790FC55E06002E4F08FBAD0075A
:10291B00D0D0D082D083D0E0324391C153923E903D
:10292B00025E740FF0E4900261F0A3F090025FF08E
:10293B00A304F0FB7A02795E1224527F0112002E5F
:10294B00E4FDFF022624EFD394647480948040024C
:10295B007F64E4FCFDFE900221E0F8A3E0F9A3E024
:10296B00FAA3E0FB1207C2E47B64FAF9F802084D04
:10297B00E490025EF0A304F0E4A3F0A374D1F0A3FF
:10298B007420F0A37401F0FB7A02795EE4FF121657
:10299B004AE4FD7F010225CFE5A2543F4440F5A256
:1029AB0043BA8090FEB6E054F34404F053BA7F432D
:1029BB00BA80E054CF4410F053BA7F22C0E0C083FA
:1029CB00C0829003027401F0D082D083D0E032C079
:1029DB00E0C083C0829003027402F0D082D083D017
:1029EB00E032C0E0C083C0829003027403F0D08257
:1029FB00D083D0E032C0E0C083C082900302740465
:102A0B00F0D082D083D0E032C0E0C083C08290038C
:102A1B00027405F0D082D083D0E032C0E0C0D05336
:102A2B00E6BFE5E61392C7D0D0D0E0328F99900085
:102A3B00037401F0900003E070FA22E4F5C7F5C5CA
:102A4B00F5C675C3FF75C4FF2212297B1229A3D2C9
:0C2A5B00AF0200B6122A5412257780FB4F
:00000001FF
